{
  "contractName": "Web3Ecommerce",
  "abi": [
    {
      "anonymous": false,
      "inputs": [
        {
          "indexed": true,
          "internalType": "uint256",
          "name": "productId",
          "type": "uint256"
        },
        {
          "indexed": false,
          "internalType": "address",
          "name": "buyer",
          "type": "address"
        },
        {
          "indexed": false,
          "internalType": "uint256",
          "name": "monthlyInstallment",
          "type": "uint256"
        },
        {
          "indexed": false,
          "internalType": "uint256",
          "name": "tenure",
          "type": "uint256"
        }
      ],
      "name": "EMIPlanCreated",
      "type": "event"
    },
    {
      "anonymous": false,
      "inputs": [
        {
          "indexed": true,
          "internalType": "uint256",
          "name": "productId",
          "type": "uint256"
        },
        {
          "indexed": false,
          "internalType": "address",
          "name": "buyer",
          "type": "address"
        },
        {
          "indexed": false,
          "internalType": "uint256",
          "name": "amountPaid",
          "type": "uint256"
        }
      ],
      "name": "InstallmentPaid",
      "type": "event"
    },
    {
      "anonymous": false,
      "inputs": [
        {
          "indexed": true,
          "internalType": "uint256",
          "name": "productId",
          "type": "uint256"
        },
        {
          "indexed": false,
          "internalType": "string",
          "name": "name",
          "type": "string"
        },
        {
          "indexed": false,
          "internalType": "string",
          "name": "description",
          "type": "string"
        },
        {
          "indexed": false,
          "internalType": "uint256",
          "name": "price",
          "type": "uint256"
        },
        {
          "indexed": false,
          "internalType": "address",
          "name": "seller",
          "type": "address"
        },
        {
          "indexed": false,
          "internalType": "uint256",
          "name": "rating",
          "type": "uint256"
        },
        {
          "indexed": false,
          "internalType": "string",
          "name": "imageLink",
          "type": "string"
        }
      ],
      "name": "ProductListed",
      "type": "event"
    },
    {
      "inputs": [
        {
          "internalType": "address",
          "name": "",
          "type": "address"
        },
        {
          "internalType": "uint256",
          "name": "",
          "type": "uint256"
        }
      ],
      "name": "emiPlans",
      "outputs": [
        {
          "internalType": "uint256",
          "name": "productId",
          "type": "uint256"
        },
        {
          "internalType": "uint256",
          "name": "totalAmount",
          "type": "uint256"
        },
        {
          "internalType": "uint256",
          "name": "monthlyInstallment",
          "type": "uint256"
        },
        {
          "internalType": "uint256",
          "name": "tenure",
          "type": "uint256"
        },
        {
          "internalType": "uint256",
          "name": "remainingAmount",
          "type": "uint256"
        },
        {
          "internalType": "uint256",
          "name": "nextPaymentDate",
          "type": "uint256"
        },
        {
          "internalType": "address",
          "name": "buyer",
          "type": "address"
        }
      ],
      "stateMutability": "view",
      "type": "function",
      "constant": true
    },
    {
      "inputs": [],
      "name": "productCount",
      "outputs": [
        {
          "internalType": "uint256",
          "name": "",
          "type": "uint256"
        }
      ],
      "stateMutability": "view",
      "type": "function",
      "constant": true
    },
    {
      "inputs": [
        {
          "internalType": "uint256",
          "name": "",
          "type": "uint256"
        }
      ],
      "name": "products",
      "outputs": [
        {
          "internalType": "uint256",
          "name": "id",
          "type": "uint256"
        },
        {
          "internalType": "string",
          "name": "name",
          "type": "string"
        },
        {
          "internalType": "string",
          "name": "description",
          "type": "string"
        },
        {
          "internalType": "uint256",
          "name": "price",
          "type": "uint256"
        },
        {
          "internalType": "address",
          "name": "seller",
          "type": "address"
        },
        {
          "internalType": "uint256",
          "name": "rating",
          "type": "uint256"
        },
        {
          "internalType": "string",
          "name": "imageLink",
          "type": "string"
        }
      ],
      "stateMutability": "view",
      "type": "function",
      "constant": true
    },
    {
      "inputs": [
        {
          "internalType": "string",
          "name": "_name",
          "type": "string"
        },
        {
          "internalType": "string",
          "name": "_description",
          "type": "string"
        },
        {
          "internalType": "uint256",
          "name": "_price",
          "type": "uint256"
        },
        {
          "internalType": "uint256",
          "name": "_rating",
          "type": "uint256"
        },
        {
          "internalType": "string",
          "name": "_imageLink",
          "type": "string"
        }
      ],
      "name": "listProduct",
      "outputs": [],
      "stateMutability": "nonpayable",
      "type": "function"
    },
    {
      "inputs": [
        {
          "internalType": "uint256",
          "name": "_productId",
          "type": "uint256"
        },
        {
          "internalType": "uint256",
          "name": "_tenure",
          "type": "uint256"
        }
      ],
      "name": "createEMIPlan",
      "outputs": [],
      "stateMutability": "payable",
      "type": "function",
      "payable": true
    },
    {
      "inputs": [
        {
          "internalType": "uint256",
          "name": "_productId",
          "type": "uint256"
        }
      ],
      "name": "payInstallment",
      "outputs": [],
      "stateMutability": "payable",
      "type": "function",
      "payable": true
    },
    {
      "inputs": [
        {
          "internalType": "uint256",
          "name": "_productId",
          "type": "uint256"
        }
      ],
      "name": "getProduct",
      "outputs": [
        {
          "components": [
            {
              "internalType": "uint256",
              "name": "id",
              "type": "uint256"
            },
            {
              "internalType": "string",
              "name": "name",
              "type": "string"
            },
            {
              "internalType": "string",
              "name": "description",
              "type": "string"
            },
            {
              "internalType": "uint256",
              "name": "price",
              "type": "uint256"
            },
            {
              "internalType": "address",
              "name": "seller",
              "type": "address"
            },
            {
              "internalType": "uint256",
              "name": "rating",
              "type": "uint256"
            },
            {
              "internalType": "string",
              "name": "imageLink",
              "type": "string"
            }
          ],
          "internalType": "struct Web3Ecommerce.Product",
          "name": "",
          "type": "tuple"
        }
      ],
      "stateMutability": "view",
      "type": "function",
      "constant": true
    },
    {
      "inputs": [
        {
          "internalType": "address",
          "name": "_buyer",
          "type": "address"
        },
        {
          "internalType": "uint256",
          "name": "_productId",
          "type": "uint256"
        }
      ],
      "name": "getEMIPlan",
      "outputs": [
        {
          "components": [
            {
              "internalType": "uint256",
              "name": "productId",
              "type": "uint256"
            },
            {
              "internalType": "uint256",
              "name": "totalAmount",
              "type": "uint256"
            },
            {
              "internalType": "uint256",
              "name": "monthlyInstallment",
              "type": "uint256"
            },
            {
              "internalType": "uint256",
              "name": "tenure",
              "type": "uint256"
            },
            {
              "internalType": "uint256",
              "name": "remainingAmount",
              "type": "uint256"
            },
            {
              "internalType": "uint256",
              "name": "nextPaymentDate",
              "type": "uint256"
            },
            {
              "internalType": "address",
              "name": "buyer",
              "type": "address"
            }
          ],
          "internalType": "struct Web3Ecommerce.EMIPlan",
          "name": "",
          "type": "tuple"
        }
      ],
      "stateMutability": "view",
      "type": "function",
      "constant": true
    }
  ],
  "bytecode": "0x608060405234801561001057600080fd5b506112c9806100206000396000f3fe60806040526004361061007b5760003560e01c8063c6517aab1161004e578063c6517aab14610131578063e0f6ef8714610151578063e2f8a01714610173578063e3fafc8e146101865761007b565b8063306dfaa2146100805780637acc0b20146100bc5780639cec5e97146100ef578063b9db15b414610104575b600080fd5b34801561008c57600080fd5b506100a061009b366004610cf6565b6101b3565b6040516100b39796959493929190611189565b60405180910390f35b3480156100c857600080fd5b506100dc6100d7366004610dc4565b610200565b6040516100b3979695949392919061111f565b6101026100fd366004610ddc565b6103e2565b005b34801561011057600080fd5b5061012461011f366004610dc4565b61057a565b6040516100b39190611084565b34801561013d57600080fd5b5061010261014c366004610d2c565b6107b6565b34801561015d57600080fd5b5061016661091a565b6040516100b39190611116565b610102610181366004610dc4565b610920565b34801561019257600080fd5b506101a66101a1366004610cf6565b610ad1565b6040516100b39190611032565b60016020818152600093845260408085209091529183529120805491810154600282015460038301546004840154600585015460069095015493949293919290916001600160a01b031687565b6000602081905290815260409020805460018201805491929161022290611211565b80601f016020809104026020016040519081016040528092919081815260200182805461024e90611211565b801561029b5780601f106102705761010080835404028352916020019161029b565b820191906000526020600020905b81548152906001019060200180831161027e57829003601f168201915b5050505050908060020180546102b090611211565b80601f01602080910402602001604051908101604052809291908181526020018280546102dc90611211565b80156103295780601f106102fe57610100808354040283529160200191610329565b820191906000526020600020905b81548152906001019060200180831161030c57829003601f168201915b505050600384015460048501546005860154600687018054969793966001600160a01b0390931695509093509061035f90611211565b80601f016020809104026020016040519081016040528092919081815260200182805461038b90611211565b80156103d85780601f106103ad576101008083540402835291602001916103d8565b820191906000526020600020905b8154815290600101906020018083116103bb57829003601f168201915b5050505050905087565b6000828152602081905260409020600301546104195760405162461bcd60e51b815260040161041090610ee5565b60405180910390fd5b600081116104395760405162461bcd60e51b815260040161041090610f15565b6000828152602081905260408120600301549061045683836111da565b9050803410156104785760405162461bcd60e51b815260040161041090610fc4565b6040518060e0016040528085815260200183815260200182815260200184815260200134846104a791906111fa565b81526020016104b94262278d006111c2565b81523360209182018190526000818152600180845260408083208a8452855291829020855181559385015190840155838101516002840155606084015160038401556080840151600484015560a0840151600584015560c090930151600690920180546001600160a01b0319166001600160a01b0390931692909217909155905185917f4c878faea3717ac8136f86c220b637015521e6093695a53580d07917be6763569161056c919085908890610e61565b60405180910390a250505050565b610582610b50565b6000828152602081905260409020546105ad5760405162461bcd60e51b815260040161041090610ee5565b60008281526020818152604091829020825160e081019093528054835260018101805491928401916105de90611211565b80601f016020809104026020016040519081016040528092919081815260200182805461060a90611211565b80156106575780601f1061062c57610100808354040283529160200191610657565b820191906000526020600020905b81548152906001019060200180831161063a57829003601f168201915b5050505050815260200160028201805461067090611211565b80601f016020809104026020016040519081016040528092919081815260200182805461069c90611211565b80156106e95780601f106106be576101008083540402835291602001916106e9565b820191906000526020600020905b8154815290600101906020018083116106cc57829003601f168201915b50505091835250506003820154602082015260048201546001600160a01b031660408201526005820154606082015260068201805460809092019161072d90611211565b80601f016020809104026020016040519081016040528092919081815260200182805461075990611211565b80156107a65780601f1061077b576101008083540402835291602001916107a6565b820191906000526020600020905b81548152906001019060200180831161078957829003601f168201915b5050505050815250509050919050565b600182101580156107c8575060058211155b6107e45760405162461bcd60e51b815260040161041090610ffb565b600280549060006107f48361124c565b90915550506040805160e08101825260025480825260208083018981528385018990526060840188905233608085015260a0840187905260c0840186905260009283528282529390912082518155925180519293926108599260018501920190610b96565b5060408201518051610875916002840191602090910190610b96565b506060820151600382015560808201516004820180546001600160a01b0319166001600160a01b0390921691909117905560a0820151600582015560c082015180516108cb916006840191602090910190610b96565b509050506002547f3d2b3aa3a6dc887e5c9051c3512c786607b99687218d10f14c576657dfdffc3a86868633878760405161090b96959493929190610e82565b60405180910390a25050505050565b60025481565b3360009081526001602090815260408083208484529091529020600481015461095b5760405162461bcd60e51b815260040161041090610f3d565b806002015434101561097f5760405162461bcd60e51b815260040161041090610f96565b80600501544210156109a35760405162461bcd60e51b815260040161041090610f69565b6000816004015434116109b657346109bc565b81600401545b9050808260040160008282546109d291906111fa565b9250508190555062278d008260050160008282546109f091906111c2565b92505081905550827f8a5dbec8f279194beed98887876b43b38dad01d5028404d6424f27bf6b14e9083383604051610a29929190610e48565b60405180910390a26004820154610a8c573360009081526001602081815260408084208785529091528220828155908101829055600281018290556003810182905560048101829055600581019190915560060180546001600160a01b03191690555b80341115610acc57336108fc610aa283346111fa565b6040518115909202916000818181858888f19350505050158015610aca573d6000803e3d6000fd5b505b505050565b610ad9610c1a565b506001600160a01b03918216600090815260016020818152604080842094845293815291839020835160e0810185528154815291810154928201929092526002820154928101929092526003810154606083015260048101546080830152600581015460a08301526006015490911660c082015290565b6040518060e001604052806000815260200160608152602001606081526020016000815260200160006001600160a01b0316815260200160008152602001606081525090565b828054610ba290611211565b90600052602060002090601f016020900481019282610bc45760008555610c0a565b82601f10610bdd57805160ff1916838001178555610c0a565b82800160010185558215610c0a579182015b82811115610c0a578251825591602001919060010190610bef565b50610c16929150610c60565b5090565b6040518060e0016040528060008152602001600081526020016000815260200160008152602001600081526020016000815260200160006001600160a01b031681525090565b5b80821115610c165760008155600101610c61565b600082601f830112610c85578081fd5b813567ffffffffffffffff80821115610ca057610ca061127d565b604051601f8301601f191681016020018281118282101715610cc457610cc461127d565b604052828152848301602001861015610cdb578384fd5b82602086016020830137918201602001929092529392505050565b60008060408385031215610d08578182fd5b82356001600160a01b0381168114610d1e578283fd5b946020939093013593505050565b600080600080600060a08688031215610d43578081fd5b853567ffffffffffffffff80821115610d5a578283fd5b610d6689838a01610c75565b96506020880135915080821115610d7b578283fd5b610d8789838a01610c75565b955060408801359450606088013593506080880135915080821115610daa578283fd5b50610db788828901610c75565b9150509295509295909350565b600060208284031215610dd5578081fd5b5035919050565b60008060408385031215610dee578182fd5b50508035926020909101359150565b60008151808452815b81811015610e2257602081850181015186830182015201610e06565b81811115610e335782602083870101525b50601f01601f19169290920160200192915050565b6001600160a01b03929092168252602082015260400190565b6001600160a01b039390931683526020830191909152604082015260600190565b600060c08252610e9560c0830189610dfd565b8281036020840152610ea78189610dfd565b604084018890526001600160a01b03871660608501526080840186905283810360a08501529050610ed88185610dfd565b9998505050505050505050565b602080825260169082015275141c9bd91d58dd08191bd95cc81b9bdd08195e1a5cdd60521b604082015260600190565b6020808252600e908201526d496e76616c69642074656e75726560901b604082015260600190565b60208082526012908201527127379030b1ba34bb329022a6a490383630b760711b604082015260600190565b60208082526013908201527214185e5b595b9d081b9bdd08191d59481e595d606a1b604082015260600190565b602080825260149082015273125b9cdd59999a58da595b9d081c185e5b595b9d60621b604082015260600190565b60208082526019908201527f496e73756666696369656e7420646f776e207061796d656e7400000000000000604082015260600190565b6020808252601e908201527f526174696e67206d757374206265206265747765656e203120616e6420350000604082015260600190565b815181526020808301519082015260408083015190820152606080830151908201526080808301519082015260a0808301519082015260c0918201516001600160a01b03169181019190915260e00190565b60006020825282516020830152602083015160e060408401526110ab610100840182610dfd565b90506040840151601f19808584030160608601526110c98383610dfd565b92506060860151608086015260018060a01b0360808701511660a086015260a086015160c086015260c08601519150808584030160e08601525061110d8282610dfd565b95945050505050565b90815260200190565b600088825260e0602083015261113860e0830189610dfd565b828103604084015261114a8189610dfd565b606084018890526001600160a01b038716608085015260a0840186905283810360c0850152905061117b8185610dfd565b9a9950505050505050505050565b968752602087019590955260408601939093526060850191909152608084015260a08301526001600160a01b031660c082015260e00190565b600082198211156111d5576111d5611267565b500190565b6000826111f557634e487b7160e01b81526012600452602481fd5b500490565b60008282101561120c5761120c611267565b500390565b60028104600182168061122557607f821691505b6020821081141561124657634e487b7160e01b600052602260045260246000fd5b50919050565b600060001982141561126057611260611267565b5060010190565b634e487b7160e01b600052601160045260246000fd5b634e487b7160e01b600052604160045260246000fdfea26469706673582212208ce63d2d21958ec58dfe7e4c2229bfcd0156e8924f345835aba03b4088b9db3164736f6c63430008000033",
  "immutableReferences": {},
  "source": "// SPDX-License-Identifier: MIT\r\npragma solidity ^0.8.0;\r\n\r\ncontract Web3Ecommerce {\r\n    struct Product {\r\n        uint256 id;\r\n        string name;\r\n        string description;\r\n        uint256 price;\r\n        address seller;\r\n        uint256 rating;\r\n        string imageLink;\r\n    }\r\n\r\n    struct EMIPlan {\r\n        uint256 productId;\r\n        uint256 totalAmount;\r\n        uint256 monthlyInstallment;\r\n        uint256 tenure; // in months\r\n        uint256 remainingAmount;\r\n        uint256 nextPaymentDate;\r\n        address buyer;\r\n    }\r\n\r\n    mapping(uint256 => Product) public products;\r\n    mapping(address => mapping(uint256 => EMIPlan)) public emiPlans;\r\n\r\n    uint256 public productCount;\r\n\r\n    event ProductListed(uint256 indexed productId, string name, string description, uint256 price, address seller, uint256 rating, string imageLink);\r\n    event EMIPlanCreated(uint256 indexed productId, address buyer, uint256 monthlyInstallment, uint256 tenure);\r\n    event InstallmentPaid(uint256 indexed productId, address buyer, uint256 amountPaid);\r\n\r\n    function listProduct(\r\n        string memory _name,\r\n        string memory _description,\r\n        uint256 _price,\r\n        uint256 _rating,\r\n        string memory _imageLink\r\n    ) external {\r\n        require(_rating >= 1 && _rating <= 5, \"Rating must be between 1 and 5\");\r\n        productCount++;\r\n        products[productCount] = Product(productCount, _name, _description, _price, msg.sender, _rating, _imageLink);\r\n        emit ProductListed(productCount, _name, _description, _price, msg.sender, _rating, _imageLink);\r\n    }\r\n\r\n    function createEMIPlan(uint256 _productId, uint256 _tenure) external payable {\r\n        require(products[_productId].price > 0, \"Product does not exist\");\r\n        require(_tenure > 0, \"Invalid tenure\");\r\n\r\n        uint256 totalAmount = products[_productId].price;\r\n        uint256 monthlyInstallment = totalAmount / _tenure;\r\n\r\n        require(msg.value >= monthlyInstallment, \"Insufficient down payment\");\r\n\r\n        emiPlans[msg.sender][_productId] = EMIPlan(\r\n            _productId,\r\n            totalAmount,\r\n            monthlyInstallment,\r\n            _tenure,\r\n            totalAmount - msg.value,\r\n            block.timestamp + 30 days,\r\n            msg.sender\r\n        );\r\n\r\n        emit EMIPlanCreated(_productId, msg.sender, monthlyInstallment, _tenure);\r\n    }\r\n\r\n    function payInstallment(uint256 _productId) external payable {\r\n        EMIPlan storage plan = emiPlans[msg.sender][_productId];\r\n        require(plan.remainingAmount > 0, \"No active EMI plan\");\r\n        require(msg.value >= plan.monthlyInstallment, \"Insufficient payment\");\r\n        require(block.timestamp >= plan.nextPaymentDate, \"Payment not due yet\");\r\n\r\n        uint256 amountPaid = msg.value > plan.remainingAmount ? plan.remainingAmount : msg.value;\r\n        plan.remainingAmount -= amountPaid;\r\n        plan.nextPaymentDate += 30 days;\r\n\r\n        emit InstallmentPaid(_productId, msg.sender, amountPaid);\r\n\r\n        if (plan.remainingAmount == 0) {\r\n            delete emiPlans[msg.sender][_productId];\r\n        }\r\n\r\n        if (msg.value > amountPaid) {\r\n            payable(msg.sender).transfer(msg.value - amountPaid);\r\n        }\r\n    }\r\n\r\n    function getProduct(uint256 _productId) external view returns (Product memory) {\r\n        require(products[_productId].id != 0, \"Product does not exist\");\r\n        return products[_productId];\r\n    }\r\n\r\n    function getEMIPlan(address _buyer, uint256 _productId) external view returns (EMIPlan memory) {\r\n        return emiPlans[_buyer][_productId];\r\n    }\r\n}",
  "sourcePath": "D:\\dappecommerce\\web3-ecommerce\\contracts\\Web3Ecommerce.sol",
  "compiler": {
    "name": "solc",
    "version": "0.8.0+commit.c7dfd78e.Emscripten.clang"
  },
  "schemaVersion": "3.4.16",
  "updatedAt": "2024-08-15T16:22:55.930Z",
  "networkType": "ethereum",
  "devdoc": {
    "kind": "dev",
    "methods": {},
    "version": 1
  },
  "userdoc": {
    "kind": "user",
    "methods": {},
    "version": 1
  }
}